:020000040800F2
:100000000000022009340008F9310008013200081C
:1000100009320008113200081932000800000000FF
:10002000000000000000000000000000518B0008EC
:100030002132000800000000A18D0008098E000890
:10004000593400085934000859340008593400085C
:10005000593400085934000859340008593400084C
:10006000593400085934000859340008593400083C
:10007000593400085934000859340008593400082C
:1000800059340008593400085934000800000000B1
:1000900000000000000000000000000059340008CB
:1000A0005934000831320008593400085934000826
:1000B0005934000845320008593400085934000802
:1000C00059340008593400085934000859340008DC
:1000D0005934000859340008593400080000000061
:1000E0005934000859340008593400080000000051
:1000F000000000000000000000000000593400086B
:100100000000000059340008593400085934000830
:1001100000000000000000000000000000000000DF
:10012000593400085934000859340008593400087B
:10013000593400080000000000000000000000002A
:10014000000000000000000000000000593400081A
:10015000593400085934000859340008593400084B
:100160005934000859340008000000000000000065
:10017000000000000000000000000000000000007F
:1001800000000000593400080000000000000000DA
:0801900059340008593400083D
:1001A00010B5054C237833B9044B13B10448AFF3B1
:1001B00000800123237010BD000200200000000019
:1001C0007CE2000808B5034B1BB103490348AFF3B9
:1001D000008008BD00000000040200207CE200084E
:1001E00001F0FF01102A2BDB10F0070F08D010F8E8
:1001F000013B013A8B422DD010F0070F42B3F6D1EC
:10020000F0B441EA012141EA014122F007047FF004
:1002100000070023F0E80256083C85EA010586EA5B
:10022000010685FA47F5A3FA87F586FA47F6A5FA97
:1002300087F68EB9EED1F0BC01F0FF0102F00702A3
:1002400032B110F8013B013A83EA010313B1F8D14E
:100250000020704701387047002D06BF354603382F
:10026000073815F0010F07D1013015F4807F02BF68
:10027000013015F4C03F0130F0BC0138704700BFB9
:10028000034613F8012B002AFBD1181A01387047D6
:1002900081F0004102E000BF83F0004330B54FEA37
:1002A00041044FEA430594EA050F08BF90EA020FA4
:1002B0001FBF54EA000C55EA020C7FEA645C7FEA37
:1002C000655C00F0E2804FEA5454D4EB5555B8BF5A
:1002D0006D420CDD2C4480EA020281EA030382EACB
:1002E000000083EA010180EA020281EA0303362D5D
:1002F00088BF30BD11F0004F4FEA01314FF4801C30
:100300004CEA113102D0404261EB410113F0004F41
:100310004FEA03334CEA133302D0524263EB4303F8
:1003200094EA050F00F0A780A4F10104D5F1200E96
:100330000DDB02FA0EFC22FA05F2801841F10001F1
:1003400003FA0EF2801843FA05F359410EE0A5F1C5
:1003500020050EF1200E012A03FA0EFC28BF4CF0F6
:10036000020C43FA05F3C01851EBE37101F00045AC
:1003700007D54FF0000EDCF1000C7EEB00006EEBB9
:100380000101B1F5801F1BD3B1F5001F0CD3490843
:100390005FEA30004FEA3C0C04F101044FEA44529A
:1003A00012F5800F80F09A80BCF1004F08BF5FEA21
:1003B000500C50F1000041EB045141EA050130BD01
:1003C0005FEA4C0C404141EB0101013C28BFB1F513
:1003D000801FE9D291F0000F04BF01460020B1FA5E
:1003E00081F308BF2033A3F10B03B3F120020CDA31
:1003F0000C3208DD02F1140CC2F10C0201FA0CF00F
:1004000021FA02F10CE002F11402D8BFC2F1200C73
:1004100001FA02F120FA0CFCDCBF41EA0C01904029
:10042000E41AA2BF01EB0451294330BD6FEA040472
:100430001F3C1CDA0C340EDC04F11404C4F120025D
:1004400020FA04F001FA02F340EA030021FA04F36F
:1004500045EA030130BDC4F10C04C4F1200220FAC6
:1004600002F001FA04F340EA0300294630BD21FA04
:1004700004F0294630BD94F0000F83F4801306BFCA
:1004800081F480110134013D4EE77FEA645C18BFBE
:100490007FEA655C29D094EA050F08BF90EA020F55
:1004A00005D054EA000C04BF1946104630BD91EA4D
:1004B000030F1EBF0021002030BD5FEA545C05D150
:1004C0004000494128BF41F0004130BD14F580048F
:1004D0003CBF01F5801130BD01F0004545F0FE4103
:1004E00041F470014FF0000030BD7FEA645C1ABF38
:1004F000194610467FEA655C1CBF0B46024650EA6F
:10050000013406BF52EA033591EA030F41F400219A
:1005100030BD00BF90F0000F04BF0021704730B520
:100520004FF4806404F132044FF000054FF00001F5
:1005300050E700BF90F0000F04BF0021704730B5B6
:100540004FF4806404F1320410F0004548BF40428B
:100550004FF000013EE700BF42004FEAE2014FEAE0
:1005600031014FEA02701FBF12F07F4393F07F4FBB
:1005700081F06051704732F07F4208BF704793F0BE
:100580007F4F04BF41F40021704730B54FF46074D1
:1005900001F0004521F000411CE700BF50EA0102D4
:1005A00008BF704730B54FF000050AE050EA01027D
:1005B00008BF704730B511F0004502D5404261EBED
:1005C00041014FF4806404F132045FEA915C3FF42E
:1005D000D8AE4FF003025FEADC0C18BF03325FEACB
:1005E000DC0C18BF033202EBDC02C2F1200300FA7C
:1005F00003FC20FA02F001FA03FE40EA0E0021FAA1
:1006000002F11444BDE600BF70B54FF0FF0C4CF48E
:10061000E06C1CEA11541DBF1CEA135594EA0C0F40
:1006200095EA0C0F00F0DEF82C4481EA030621EA7B
:100630004C5123EA4C5350EA013518BF52EA0335B6
:1006400041F4801143F4801338D0A0FB02CE4FF068
:100650000005E1FB02E506F00042E0FB03E54FF098
:100660000006E1FB03569CF0000F18BF4EF0010E90
:10067000A4F1FF04B6F5007F64F5407404D25FEA8C
:100680004E0E6D4146EB060642EAC62141EA55513F
:100690004FEAC52040EA5E504FEACE2EB4F1FD0C81
:1006A00088BFBCF5E06F1ED8BEF1004F08BF5FEAFF
:1006B000500E50F1000041EB045170BD06F00046B1
:1006C00046EA010140EA020081EA0301B4EB5C045E
:1006D000C2BFD4EB0C0541EA045170BD41F4801156
:1006E0004FF0000E013C00F3AB8014F1360FDEBF7B
:1006F000002001F0004170BDC4F10004203C35DA57
:100700000C341BDC04F11404C4F1200500FA05F3D9
:1007100020FA04F001FA05F240EA020001F000427A
:1007200021F0004110EBD37021FA04F642EB0601F0
:100730005EEA430E08BF20EAD37070BDC4F10C041A
:10074000C4F1200500FA04F320FA05F001FA04F2DE
:1007500040EA020001F0004110EBD37041F10001CA
:100760005EEA430E08BF20EAD37070BDC4F12005D5
:1007700000FA05F24EEA020E20FA04F301FA05F23D
:1007800043EA020321FA04F001F0004121FA04F2E5
:1007900020EA020000EBD3705EEA430E08BF20EAB5
:1007A000D37070BD94F0000F0FD101F000464000EF
:1007B00041EB010111F4801F08BF013CF7D041EA71
:1007C000060195F0000F18BF704703F00046520075
:1007D00043EB030313F4801F08BF013DF7D043EA46
:1007E0000603704794EA0C0F0CEA135518BF95EAFC
:1007F0000C0F0CD050EA410618BF52EA4306D1D183
:1008000081EA030101F000414FF0000070BD50EAA1
:10081000410606BF1046194652EA430619D094EA2B
:100820000C0F02D150EA013613D195EA0C0F05D115
:1008300052EA03361CBF104619460AD181EA030169
:1008400001F0004141F0FE4141F470014FF0000021
:1008500070BD41F0FE4141F4780170BD70B54FF0BC
:10086000FF0C4CF4E06C1CEA11541DBF1CEA13553C
:1008700094EA0C0F95EA0C0F00F0A7F8A4EB05041E
:1008800081EA030E52EA03354FEA013100F0888015
:100890004FEA03334FF0805545EA131343EA1263DE
:1008A0004FEA022245EA111545EA10654FEA002693
:1008B0000EF000419D4208BF964244F1FD0404F54C
:1008C000407402D25B084FEA3202B61A65EB0305A8
:1008D0005B084FEA32024FF480104FF4002CB6EB65
:1008E000020E75EB030E22BFB61A754640EA0C00E5
:1008F0005B084FEA3202B6EB020E75EB030E22BF25
:10090000B61A754640EA5C005B084FEA3202B6EB65
:10091000020E75EB030E22BFB61A754640EA9C0024
:100920005B084FEA3202B6EB020E75EB030E22BFF4
:10093000B61A754640EADC0055EA060E18D04FEAB2
:10094000051545EA16754FEA06164FEAC30343EA52
:1009500052734FEAC2025FEA1C1CC0D111F4801F1F
:100960000BD141EA00014FF000004FF0004CB6E718
:1009700011F4801F04BF01430020B4F1FD0C88BFB7
:10098000BCF5E06F3FF6AFAEB5EB030C04BFB6EBC2
:10099000020C5FEA500C50F1000041EB045170BDB5
:1009A0000EF0004E4EEA113114EB5C04C2BFD4EBE2
:1009B0000C0541EA045170BD41F480114FF0000E66
:1009C000013C90E645EA060E8DE60CEA135594EAE2
:1009D0000C0F08BF95EA0C0F3FF43BAF94EA0C0FE5
:1009E0000AD150EA01347FF434AF95EA0C0F7FF45A
:1009F00025AF104619462CE795EA0C0F06D152EAAE
:100A000003353FF4FDAE1046194622E750EA410691
:100A100018BF52EA43067FF4C5AE50EA41047FF4A2
:100A20000DAF52EA43057FF4EBAE12E74FF0FF3C07
:100A300006E000BF4FF0010C02E000BF4FF0010CD8
:100A40004DF804CD4FEA410C7FEA6C5C4FEA430C51
:100A500018BF7FEA6C5C1BD001B050EA410C0CBFA0
:100A600052EA430C91EA030F02BF90EA020F002002
:100A7000704710F1000F91EA030F58BF994208BF69
:100A800090422CBFD8176FEAE37040F00100704726
:100A90004FEA410C7FEA6C5C02D150EA013C07D17D
:100AA0004FEA430C7FEA6C5CD6D152EA033CD3D0C8
:100AB0005DF8040B704700BF8446104662468C46C2
:100AC0001946634600E000BF01B5FFF7B7FF0028F5
:100AD00048BF10F1000F01BD4DF808EDFFF7F4FF1E
:100AE0000CBF012000205DF808FB00BF4DF808EDA9
:100AF000FFF7EAFF34BF012000205DF808FB00BFCC
:100B00004DF808EDFFF7E0FF94BF012000205DF8ED
:100B100008FB00BF4DF808EDFFF7CEFF94BF0120A2
:100B200000205DF808FB00BF4DF808EDFFF7C4FF9B
:100B300034BF012000205DF808FB00BF4FEA410CE4
:100B40007FEA6C5C02D150EA013C0AD14FEA430CC7
:100B50007FEA6C5C02D152EA033C02D14FF0000004
:100B600070474FF0010070474FEA410212F5001242
:100B700015D211D56FF47873B3EB625212D94FEAE4
:100B8000C12343F0004343EA505311F0004F23FACE
:100B900002F018BF404270474FF00000704750EA23
:100BA000013005D111F0004008BF6FF000407047E0
:100BB0004FF00000704700BF4A0011D212F500123A
:100BC00011D20DD56FF47873B3EB62520ED44FEAA5
:100BD000C12343F0004343EA505323FA02F0704725
:100BE0004FF00000704750EA013002D14FF0FF3063
:100BF00070474FF0000070474FEA4102B2F1E04306
:100C000024BFB3F5001CDCF1FE5C0DD901F0004CF3
:100C10004FEAC0024CEA5070B2F1004F40EB830043
:100C200008BF20F00100704711F0804F21D113F16F
:100C30003872BCBF01F00040704741F480114FEAA8
:100C40005252C2F11802C2F1200C10FA0CF320FA31
:100C500002F018BF40F001004FEAC1234FEAD3234E
:100C600003FA0CFC40EA0C0023FA02F34FEA4303B8
:100C7000CCE77FEA625307D150EA01331EBF4FF041
:100C8000FE4040F44000704701F0004040F0FE405C
:100C900040F40000704700BF53B94AB9002908BFAB
:100CA00000281CBF4FF0FF314FF0FF3000F0BEB9FD
:100CB000ADF1080C6DE904CE00F03CF8DDF804E07D
:100CC000DDE9022304B0704738B500220023044652
:100CD0000D46FFF70BFF28B920462946BDE83840EE
:100CE00000F00AB8204605F1004100F005F8404246
:100CF00061EB410138BD00BFD0B50C4B0022064668
:100D00000F46FFF781FCFFF757FF0446FFF702FC91
:100D1000074B0022FFF778FC02460B463046394667
:100D2000FFF7BAFAFFF748FF2146D0BD0000F03DBB
:100D30000000F0412DE9F047089D8E4604468846A4
:100D4000002B4AD18A42174662D9B2FA82F64EB1D6
:100D5000C6F1200301FA06F820FA03F3B74043EA8C
:100D60000808B4404FEA174E1FFA87FCB8FBFEF1A3
:100D7000230C0EFB118843EA084301FB0CF29A4254
:100D800009D9FB1801F1FF3080F0EA809A4240F265
:100D9000E78002393B449A1AA3B2B2FBFEF00EFB85
:100DA000102243EA024300FB0CFC9C4509D9FB18C6
:100DB00000F1FF3280F0D6809C4540F2D3803B4466
:100DC000023840EA0140A3EB0C0300211DB1F340BF
:100DD0000022C5E90032BDE8F0878B4205D90DB18C
:100DE000C5E9000100210846F5E7B3FA83F10029BF
:100DF00046D1734502D3824200F20581841A6EEB1C
:100E0000030201209046002DE5D0C5E90048E2E745
:100E1000002A00F09080B2FA82F6002E40F0A48002
:100E20008A1A030C4FEA174E80B2BCB20121B2FB02
:100E3000FEFC0EFB1C2243EA024304FB0CF29A4226
:100E400007D9FB180CF1FF3802D29A4200F2E08079
:100E5000C4469B1AB3FBFEF20EFB123340EA034377
:100E600002FB04F49C4207D9FB1802F1FF3002D2C6
:100E70009C4200F2CA8002461B1B42EA0C40A5E7D6
:100E8000C1F120068B4022FA06F71F430EFA01F447
:100E900020FA06F32EFA06FE4FEA1749234300FA1A
:100EA00001F81FFA87FCBEFBF9F01C0C09FB10EEE1
:100EB00044EA0E4400FB0CFEA64502FA01F209D9F1
:100EC0003C1900F1FF3A80F09C80A64540F29980E1
:100ED00002383C44A4EB0E041FFA83FEB4FBF9F382
:100EE00009FB13444EEA044403FB0CFCA44508D957
:100EF0003C1903F1FF3E80F08280A4457FD9023B7C
:100F00003C4443EA0040A4EB0C04A0FB02EC644523
:100F10007346E14662D35FD05DB1B8EB030264EB88
:100F2000090404FA06F622FA01F31E43CC40C5E98F
:100F3000006400214FE7B1FBF2FC010C41EA0E41D5
:100F400080B240EA01423B4638463C46B846BE467F
:100F50002026B1FBF7F1A2EB080241EA0C4166E75B
:100F6000014618E710462CE7C6F120022EFA02F3DC
:100F7000B740B14020FA02F24FEA174E0A43B3FBE2
:100F8000FEF8BCB20EFB1833110C41EA034108FB1A
:100F900004F9B04089454FEA104380B23ED9791830
:100FA00008F1FF3C01D289451FD8A1EB0901B1FB33
:100FB000FEF909FB04F80EFB191192B242EA014254
:100FC000424529D2BA1809F1FF31C4D24245C2D2F2
:100FD000A9F102013A44BEE7F0459DD2BEEB0203FF
:100FE0006CEB070C0138E14696E7A7EB0909494489
:100FF000A8F1020CB1FBFEF909FB04F8DBE773462C
:101000007FE7504666E70846FDE63B44023A33E791
:10101000ACF1020C3B441CE749469CE7A1EB0901FB
:10102000C446B1FBFEF909FB04F8C4E7704700BFF2
:1010300080B483B000AF786039603B685B88A3F20E
:10104000DC5307EE903AF8EEE77A9FED1D7A67EEF3
:10105000877A7B68C3ED007A3B681B88A3F2DC5378
:1010600007EE903AF8EEE77A9FED157A67EE877A09
:101070007B68C3ED017A3B68DB88A3F2DC5307EEA3
:10108000903AF8EEE77A9FED0E7A67EE877A7B6802
:10109000C3ED027A3B689B88A3F57A7213469B00E6
:1010A00013445B0007EE903AF8EEE77A7B68C3EDF5
:1010B0000C7A00BF0C37BD465DF8047B704700BF5B
:1010C000CDCCCC3D80B485B000AFF860B96013469C
:1010D000FB71BB6842F60312934203D942F6041334
:1010E000BB6004E0BB68002B01D10023BB60FB792F
:1010F0000C2B3DD801A252F823F000BF311100089B
:1011000071110008711100087111000841110008E7
:1011100071110008711100087111000851110008C7
:1011200071110008711100087111000861110008A7
:10113000FB681A68BB6803F524530433536317E054
:10114000FB681A68BB6803F52453043393630FE00C
:10115000FB681A68BB6803F524530433D36307E0C4
:10116000FB681A68BB6803F524530433136400BF9B
:1011700000BF1437BD465DF8047B704780B582B070
:1011800000AF786039603B681B68002219467868B8
:10119000FFF798FF3B685B68042219467868FFF701
:1011A00091FF3B689B68082219467868FFF78AFF21
:1011B0003B68DB680C2219467868FFF783FF00BFA5
:1011C0000837BD4680BD80B489B000AFF86187EDB7
:1011D000060AC7ED050A87ED041AC7ED031A87ED65
:1011E000022AC7ED012A87ED003AFB69BA691A6045
:1011F000FB697A695A60FB693A699A60FB69FA6827
:10120000DA60FB69BA681A61FB694FF000025A6143
:10121000FB694FF000029A61FB694FF00002DA614E
:10122000FB694FF000021A62FB694FF000025A623C
:10123000FB694FF000029A62FB694FF000021A63EB
:10124000FB694FF00002DA62FB694FF000025A635B
:10125000FB697A681A64FB693A685A64FB694FF063
:1012600000029A63FB694FF00002DA6400BF243782
:10127000BD465DF8047B704780B485B000AFF86070
:1012800087ED020AC7ED010AFB687A68DA63FB683A
:10129000BA689A63FB6893ED0F7AFB68D3ED0E7A18
:1012A00077EE677AFB68C3ED057AFB685A69FB68DD
:1012B000DA61FB689A69FB681A62FB6893ED007A51
:1012C000FB68D3ED057A67EE277AFB68C3ED097AF0
:1012D000FB6893ED017AFB68D3ED047A67EE277A19
:1012E000F0EE006A87EEA67AFB68D3ED076AFB682A
:1012F000D3ED087A76EEA77A27EE277AFB68D3ED4E
:101300000B7A77EE277AFB68C3ED0A7AFB68D3ED98
:10131000027A77EEA76AFB68D3ED037A37EEA77AF5
:10132000FB68D3ED047A77EE277A86EEA77AFB681E
:10133000D3ED056AFB68D3ED067A76EEE77A27EE01
:10134000277AFB68D3ED037A77EEA76AFB68D3EDC3
:10135000047A36EEE76AFB68D3ED037A77EEA76A84
:10136000FB68D3ED047A76EEA77AC6EE276AFB68AF
:10137000D3ED0D7A66EEA77A77EE277AFB68C3ED98
:101380000C7AFB685A69FB689A61FB689A6AFB6889
:10139000DA62FB681A6BFB685A63FB6893ED097AA3
:1013A000FB68D3ED0A7A37EE277AFB68D3ED0C7A27
:1013B00077EE277AFB68C3ED127AFB6893ED127A19
:1013C000FB68D3ED107AB4EEE77AF1EE10FA04DDA3
:1013D000FB681A6CFB68DA6413E0FB6893ED127A21
:1013E000FB68D3ED117AB4EEE77AF1EE10FA04D58A
:1013F000FB685A6CFB68DA6403E0FB689A6CFB6874
:10140000DA64FB68DB6C07EE903AB0EE670A1437DB
:10141000BD465DF8047B704780B584B000AFF860CE
:10142000B9601346FB71FB68002B05D0BB68002B2D
:1014300002D0FB79032B01D901230CE0FB68BA68C9
:101440001A60FB68FA799A76FB680022DA61F8681C
:1014500000F005F8034618461037BD4680BD80B53C
:101460008CB004AF78607B6818684FF0FF3302934C
:101470001623019307F1080300930123AA22EE210A
:1014800003F05AF80346FB77FB7F002B01D0FB7F6C
:1014900071E03B7A1BB21B021AB27B7A1BB2134378
:1014A0001AB27B689A80BB7A1BB21B021AB2FB7A13
:1014B0001BB213431AB27B68DA803B7B1BB21B0260
:1014C0001AB27B7B1BB213431AB27B681A81BB7BB7
:1014D0001BB21B021AB2FB7B1BB213431BB29AB2A4
:1014E0007B685A813B7C1BB21B021AB27B7C1BB20D
:1014F00013431BB29AB27B689A81BB7C1BB21B025E
:101500001AB2FB7C1BB213431BB29AB27B68DA811E
:101510003B7D1BB21B021AB27B7D1BB213431AB276
:101520007B681A82BB7D1BB21B021AB2FB7D1BB209
:1015300013431AB27B685A823B7E1BB21B021AB25B
:101540007B7E1BB213431AB27B689A82BB7E1BB2AE
:101550001B021AB2FB7E1BB213431AB27B68DA82FB
:101560003B7F1BB21B021AB27B7F1BB213431AB222
:101570007B681A83002318462037BD4680BD0000D3
:1015800080B588B004AF78607B689B7E9B01DBB23E
:101590003433DBB2FB737B6818684FF0FF33029380
:1015A0000123019307F10F0300930123F422EE219D
:1015B00002F0C8FE7B689B7E032B1BD801A252F869
:1015C00023F000BFD5150008DD150008E51500085B
:1015D000ED150008052001F083FF0BE0082001F065
:1015E0007FFF07E00E2001F07BFF03E01A2001F0EF
:1015F00077FF00BF7B6818684FF0FF330293032327
:10160000019307F10C0300930123F622EE2102F06F
:1016100093FF3B7B1A047B7B1B021343BA7B1A4369
:101620007B689B7EC3F1080342FA03F31846103728
:10163000BD4680BD80B58CB000AF78607868FFF79C
:101640009FFFB8627B68DB69A3F57A637B627B6886
:10165000B3F912301A467B6A03FB03F31B1302FB38
:1016600003F3DB123B627B68B3F906301A467B6AF0
:1016700002FB03F3DB12FB613A6AFB691344BB61B3
:101680007B68B3F904309A00BB6913447A68927E90
:10169000934002339B107B617B68B3F908301A4694
:1016A0007B6A02FB03F35B133B627B68B3F9103088
:1016B0001A467B6A03FB03F31B1302FB03F31B14A1
:1016C000FB613A6AFB69134402339B10BB617B6880
:1016D0005B891A46BB6903F5004302FB03F3DB0B8E
:1016E0003B61BA6A7B69D31A7A68927E11464CF2E2
:1016F00050320A4102FB03F3FB60FB68002B06DB60
:10170000FB685A003B69B2FBF3F3FB6205E0FA6841
:101710003B69B2FBF3F35B00FB62FB6A1B12FA6AE4
:10172000121202FB03F33B623B6A40F6DE3202FB1D
:1017300003F31B143B62FB6A0B4A02FB03F31B140B
:10174000FB613A6AFB69134403F6CF631B11FA6A23
:101750001344FB62FB6A07EE903AF8EEE77AB0EECC
:10176000670A3037BD4680BD43E3FFFF80B584B0D4
:1017700000AF786087ED000A7868FFF75BFF87EDC0
:10178000030A97ED037AD7ED007AC7EE276ADFEDFB
:101790000A0AB0EE660A0CF0A9F9F0EE407AB7EE4C
:1017A000007A77EE677A9FED057A67EE877AB0EE7A
:1017B000670A1037BD4680BD01DE423E002A2D4734
:1017C00080B582B000AF0346FB71FB791946072054
:1017D00000F064FA00BF0837BD4680BD80B582B016
:1017E00000AF0346FB71FB7919463D2000F056FA25
:1017F000FB79002B03D1132000F044FA02E007200C
:1018000000F040FA00BF0837BD4680BD80B500AF8C
:101810000020FFF7E3FF00BF80BD80B500AF0C20C4
:10182000FFF7DCFF00BF80BD80B500AF20213F2067
:1018300000F034FA4FF42F7000F024FA00BF80BD9E
:1018400080B582B000AFFFF7EFFF0023FB71FB1DF7
:1018500001221946002000F00DFBFB79A02B04D0DB
:10186000FB791946094808F033FC0020FFF7A8FF70
:1018700000213F2000F012FAFFF7C8FF0A2000F015
:1018800001FA00BF0837BD4680BD00BF98E20008DE
:101890002DE9B0439EB000AF034687F82730002003
:1018A000FFF78EFF97F82730202B08D107F148016A
:1018B00097F827300822184600F0DCFA07E007F115
:1018C000480197F827300622184600F0D3FA4FF067
:1018D00000028E4BC7E91C2397F827300E2B09D145
:1018E0008B4B1B881846FEF715FE02460B46C7E9D0
:1018F0001C233EE097F82730082B07D097F82730B5
:10190000282B03D097F827302E2B09D1814B1B8829
:101910001846FEF7FFFD02460B46C7E91C2328E0E8
:1019200097F82730142B09D17B4B1B881846FEF7FC
:10193000F1FD02460B46C7E91C231AE097F8273051
:101940001A2B09D1754B1B881846FEF7E3FD02469A
:101950000B46C7E91C230CE097F82730202B08D151
:101960006F4B1B881846FEF7D5FD02460B46C7E9AC
:101970001C2307F1280320220021184608F012FD3D
:1019800097F82730202B54D197F849301BB21B020F
:101990001AB297F848301BB213431BB21846FEF731
:1019A000C9FDD7E91C23FEF759FF02460B46C7E9DC
:1019B0000A2397F84B301BB21B021AB297F84A3031
:1019C0001BB213431BB21846FEF7B4FDD7E91C2324
:1019D000FEF744FF02460B46C7E90C2397F84D304B
:1019E0001BB21B021AB297F84C301BB213431BB246
:1019F0001846FEF79FFDD7E91C23FEF72FFF02468E
:101A00000B46C7E90E2397F84F301BB21B021AB2E0
:101A100097F84E301BB213431BB21846FEF78AFDEF
:101A2000D7E91C23FEF71AFF02460B46C7E910232D
:101A30003EE097F849301BB21B021AB297F84830C3
:101A40001BB213431BB21846FEF774FDD7E91C23E3
:101A5000FEF704FF02460B46C7E90C2397F84B300C
:101A60001BB21B021AB297F84A301BB213431BB2C7
:101A70001846FEF75FFDD7E91C23FEF7EFFE02468E
:101A80000B46C7E90E2397F84D301BB21B021AB262
:101A900097F84C301BB213431BB21846FEF74AFDB1
:101AA000D7E91C23FEF7DAFE02460B46C7E91023EE
:101AB00007F1500407F128050FCD0FC495E80F007A
:101AC00084E80F00D7E91489D7E91645D7E918014A
:101AD000D7E91A2349EC148B45EC154B41EC160B56
:101AE00043EC172BB0EE440AF0EE640AB0EE451A50
:101AF000F0EE651AB0EE462AF0EE662AB0EE473AEE
:101B0000F0EE673A7837BD46BDE8B0830000F03F9D
:101B10000600002000000020020000200400002039
:101B2000080000202DE9B04390B000AF1420FFF76B
:101B3000AFFEB0EE404AF0EE604AB0EE415AF0EE31
:101B4000615AB0EE426AF0EE626AB0EE437AF0EEAD
:101B5000637A87ED084B87ED0A5B87ED0C6B87EDA9
:101B60000E7BD7E90889D7E90A45D7E90C01D7E9FF
:101B70000E2349EC148B45EC154B41EC160B43EC52
:101B8000172BB0EE440AF0EE640AB0EE451AF0EE00
:101B9000651AB0EE462AF0EE662AB0EE473AF0EE4D
:101BA000673A4037BD46BDE8B0832DE9B04390B0F9
:101BB00000AF1A20FFF76CFEB0EE404AF0EE604A2C
:101BC000B0EE415AF0EE615AB0EE426AF0EE626A4F
:101BD000B0EE437AF0EE637A87ED084B87ED0A5B4F
:101BE00087ED0C6B87ED0E7BD7E90889D7E90A45AD
:101BF000D7E90C01D7E90E2349EC148B45EC154BC2
:101C000041EC160B43EC172BB0EE440AF0EE640ADD
:101C1000B0EE451AF0EE651AB0EE462AF0EE662AEE
:101C2000B0EE473AF0EE673A4037BD46BDE8B083C4
:101C300080B485B000AFF860B9607A60FB68074A8D
:101C40001A60BB68064A1A607B6880221A6000BF6F
:101C50001437BD465DF8047B704700BF1C020020AE
:101C6000BC02002080B483B000AF7860044A7B6877
:101C7000136000BF0C37BD465DF8047B704700BFA2
:101C8000BC04002080B582B000AF78607B68184645
:101C900006F0D5F800BF0837BD4680BD80B588B0D6
:101CA00002AF03460A46FB711346BB71FB793B73D7
:101CB000BB797B735A4B186807F10C020A23009317
:101CC0000223502102F00EF80346FB75FB7D002B2A
:101CD00000F0A080FB7D012B03D1524808F060FA90
:101CE00012E0FB7D032B03D14F4808F059FA0BE0BB
:101CF000FB7D022B03D14D4808F052FA04E0FB7D36
:101D000019464B4808F0E4F9454B1B68184602F0A9
:101D100053FE38613B69002B7ED03B69012B03D118
:101D2000444808F03DFA21E03B69022B03D14248C8
:101D300008F036FA1AE03B69042B03D13F4808F05B
:101D40002FFA13E03B69082B03D13D4808F028FA2D
:101D50000CE03B69102B03D13A4808F021FA05E06A
:101D60003B69202B02D1384808F01AFA2C4B1B682B
:101D7000184602F013FE0346FB73FB7B002B03D1D6
:101D8000324808F00DFA48E0FB7B202B03D12F48A6
:101D900008F006FA41E0FB7B242B03D12C4808F025
:101DA000FFF93AE0FB7B212B03D12A4808F0F8F930
:101DB00033E0FB7B222B03D1274808F0F1F92CE01C
:101DC000FB7B282B03D1254808F0EAF925E0FB7BB3
:101DD000292B03D1224808F0E3F91EE0FB7B2A2BD4
:101DE00003D1204808F0DCF917E0FB7B602B03D11E
:101DF0001D4808F0D5F910E0FB7BA02B03D11B4850
:101E000008F0CEF909E0FB7BE02B06D1184808F07A
:101E1000C7F902E000BF00E000BF1837BD4680BD33
:101E2000BC040020D4E20008F8E2000820E3000827
:101E300044E300085CE3000870E3000884E3000862
:101E400098E30008ACE30008C0E30008D8E300080A
:101E5000F0E3000804E400081CE4000834E400088F
:101E60004CE400086CE400088CE40008A4E40008DA
:101E7000BCE4000880B584B002AF03463960FB7152
:101E80001346BB710B4B1868FA1D642300930123A2
:101E9000502101F027FF074B1868BB799BB26422E1
:101EA00000923A68502102F01BF800BF0837BD4687
:101EB00080BD00BFBC040020B0B58AB002AF01F005
:101EC000CDFA00F027F900F019FB00F0B9F900F0A5
:101ED00023FA00F09BFA00F0E9F900F0E5FA00F0CF
:101EE00081F901224FF40051684801F083FD684BED
:101EF000FB619FED683ADFED682A97ED072ADFED79
:101F0000661AB1EE041AF2EE0E0AB3EE040A634842
:101F1000FFF759F99FED623ADFED622A97ED072A44
:101F2000DFED5D1AB2EE041ADFED5F0A9FED5F0A86
:101F30005F48FFF748F99FED573ADFED572A97EDD5
:101F4000072ADFED551AB1EE041AF2EE0E0AB3EECF
:101F5000040A5848FFF737F99FED513ADFED512A4F
:101F600097ED072ADFED4C1AB2EE041ADFED4E0AA8
:101F70009FED4E0A5048FFF726F99FED463ADFEDF8
:101F8000462A97ED072ADFED441AB1EE041AF2EE65
:101F90000E0AB3EE040A4948FFF715F99FED403ADF
:101FA000DFED402A97ED072ADFED3B1AB2EE041A67
:101FB000DFED3D0A9FED3D0A4148FFF704F99FED33
:101FC000413ADFED412A97ED072ADFED331AB2EEF1
:101FD000041AF3EE090A9FED340A3C48FFF7F3F8C0
:101FE00000213B4804F056FD0421394804F052FD1D
:101FF0000821374804F04EFD0C21354804F04AFD15
:10200000344804F095FC4FF0A2324FF0A20332485E
:1020100000F010FE032231493148FFF7FDF9314B42
:102020003C461D460FCD0FC495E8070084E8070025
:102030003B460021184605F0B6FE03462A4A1360C7
:102040002A4B01930123009300234FF48072284907
:10205000284806F01CF8284B019300230093274BD7
:102060004FF480722649274806F011F8264B019359
:102070000023009300234FF480722449244806F083
:1020800006F805F089FE00BFFDE700BF000802402A
:102090006F12833ACDCCCCBDCDCCCC3D44080020D2
:1020A0000080BBC40080BB44000048420000C8421E
:1020B00098080020F4060020480700209C07002014
:1020C000F0070020000000000080BB45EC08002065
:1020D000C40500200C0600200C000020C0040020D5
:1020E000E0090020F0E400089C0600209009002090
:1020F000D4E400082926000894090020A009002043
:10210000D8E400082128000898090020DCE4000831
:102110007528000880B594B000AF07F12003302285
:102120000021184608F03EF907F10C0300221A605E
:102130005A609A60DA601A610023BB60274B1B6CFF
:10214000264A43F080531364244B1B6C03F08053E6
:10215000BB60BB6800237B60214B1B68204A43F4B3
:10216000404313601E4B1B6803F440437B607B6855
:1021700001233B624FF480337B620223BB634FF445
:102180008003FB6319233B64A8237B640223BB64A5
:102190000423FB6407F12003184603F01DF90346EE
:1021A000002B01D000F0FCFB0F23FB6002233B61FE
:1021B00000237B614FF48053BB610023FB6107F177
:1021C0000C030221184603F07FFB0346002B01D0CD
:1021D00000F0E6FB00BF5037BD4680BD003802402E
:1021E0000070004080B500AF124B134A1A60114BCB
:1021F000124A5A600F4B00229A600E4B0022DA609E
:102200000C4B4FF480421A610A4B00225A61094B71
:1022100000229A61074B0022DA61064B00221A6203
:10222000044801F01BFC0346002B01D000F0B8FB72
:1022300000BF80BDC004002000540040A086010003
:1022400080B500AF174B184A1A60164B4FF48272D4
:102250005A60144B00229A60124B0022DA60114B34
:1022600000221A610F4B00225A610E4B4FF400728C
:102270009A610C4B1022DA610A4B00221A62094B58
:1022800000225A62074B00229A62064B0A22DA6247
:10229000044803F02BFD0346002B01D000F080FB27
:1022A00000BF80BD140500200030014080B500AFA4
:1022B000174B184A1A60164B4FF482725A60144B2F
:1022C00000229A60124B0022DA60114B00221A6140
:1022D0000F4B00225A610E4B4FF400729A610C4B67
:1022E0000822DA610A4B00221A62094B00225A6264
:1022F000074B00229A62064B0A22DA62044803F076
:10230000F5FC0346002B01D000F04AFB00BF80BD66
:102310006C0500200038004080B58AB000AF07F19E
:10232000200300221A605A603B1D00221A605A6086
:102330009A60DA601A615A619A61334B4FF08042B9
:102340001A60314B00225A602F4B00229A602E4BAC
:102350004FF0FF32DA602C4B00221A612A4B002228
:102360009A61294804F046FB0346002B01D000F097
:1023700017FB00233B6200237B6207F12003194611
:10238000214805F0ABF90346002B01D000F008FB13
:1023900060237B600023BB600023FB6000237B6124
:1023A0003B1D00221946184804F014FD0346002B7B
:1023B00001D000F0F5FA3B1D04221946124804F042
:1023C00009FD0346002B01D000F0EAFA3B1D08226C
:1023D00019460D4804F0FEFC0346002B01D000F026
:1023E000DFFA3B1D0C221946074804F0F3FC0346B4
:1023F000002B01D000F0D4FA034800F00BFE00BF20
:102400002837BD4680BD00BFC405002080B586B01A
:1024100000AF07F1080300221A605A609A60DA6080
:102420003B4600221A605A601D4B1E4A1A601C4B24
:1024300053225A601A4B00229A60194B40F2E7323D
:10244000DA60174B00221A61154B00229A6114487A
:1024500004F01EFA0346002B01D000F0A1FA4FF45D
:102460008053BB6007F1080319460D4804F074FD62
:102470000346002B01D000F093FA00233B600023B9
:102480007B603B461946064805F028F90346002BB9
:1024900001D000F085FA00BF1837BD4680BD00BFEF
:1024A0000C0600200004004080B500AF114B124A1A
:1024B0001A60104B4FF4E1325A600E4B00229A60C2
:1024C0000C4B0022DA600B4B00221A61094B0C22E4
:1024D0005A61084B00229A61064B0022DA610548D6
:1024E00005F07EF90346002B01D000F059FA00BF39
:1024F00080BD00BF540600200010014080B58AB0A6
:1025000000AF07F1140300221A605A609A60DA6083
:102510001A6100233B61404B1B6B3F4A43F00403AD
:1025200013633D4B1B6B03F004033B613B690023CA
:10253000FB60394B1B6B384A43F080031363364B07
:102540001B6B03F08003FB60FB680023BB60324B16
:102550001B6B314A43F0010313632F4B1B6B03F0DA
:102560000103BB60BB6800237B602B4B1B6B2A4ABB
:1025700043F002031363284B1B6B03F002037B60E1
:102580007B6800224FF40051244801F033FA002206
:102590001021234801F02EFA00220521214801F0E4
:1025A00029FA4FF400537B610123BB610023FB61D7
:1025B00000233B6207F114031946184801F096F80E
:1025C00010237B610123BB610023FB6100233B627D
:1025D00007F114031946124801F088F805237B61BE
:1025E0000123BB610023FB6100233B6207F114035D
:1025F00019460C4801F07AF802237B610023BB6185
:102600000023FB6107F114031946064801F06EF838
:1026100000BF2837BD4680BD003802400008024098
:10262000000002400004024080B582B000AF786034
:102630006E496F48FEF7FCFC6D4BD3ED037A6C4B93
:1026400093ED007AF0EE470AB0EE670A6948FEF7AC
:1026500013FE684BDB6C664A9361654BD3ED097AD8
:10266000634B93ED067AF0EE470AB0EE670A6248D4
:10267000FEF702FE5E4BD3ED047A5D4B93ED017ADB
:10268000F0EE470AB0EE670A5C48FEF7F5FD5B4BDB
:10269000DB6C574AD361564BD3ED0A7A544B93ED1A
:1026A000077AF0EE470AB0EE670A5548FEF7E4FDF8
:1026B0004F4BD3ED057A4E4B93ED027AF0EE470A7D
:1026C000B0EE670A4F48FEF7D7FD4E4BDB6C484A29
:1026D0001362474BD3ED0B7A454B93ED087AF0EE3E
:1026E000470AB0EE670A4848FEF7C6FD404BD3EDF7
:1026F0000D7A3F4B93ED0C7AF0EE470AB0EE670A85
:102700004248FEF7B9FD3E4B93ED137A3A4BD3EDB9
:10271000137A37EE677A3C4BD3ED137A37EE677A4C
:102720003A4BD3ED137A77EE277AFCEEE77A17EE81
:10273000902A374B1A60304B93ED137A304BD3ED20
:10274000137A37EE277A304BD3ED137A37EE277AA8
:102750002E4BD3ED137A77EE277AFCEEE77A17EE5D
:10276000902A2B4B5A60244B93ED137A244BD3EDD4
:10277000137A37EE677A244BD3ED137A37EE677A04
:10278000224BD3ED137A77EE277AFCEEE77A17EE39
:10279000902A1F4B9A60184BD3ED137AB1EE677AEB
:1027A000174BD3ED137A37EE677A174BD3ED137AC5
:1027B00037EE677A154BD3ED137A77EE277AFCEE76
:1027C000E77A17EE902A124BDA6011491148FEF7AA
:1027D000D5FC114B1B6801330F4A13600F4B0022CD
:1027E0001A70012005F0A2FD00BF21E77809002042
:1027F00040090020F4060020480700209C07002024
:10280000F00700204408002098080020EC08002071
:10281000E4060020C40500209C090020E0060020FA
:10282000B0B588B004AF78607B68FB60FB68D3E923
:102830000445FB68D3E90623F968D1E90201CDE933
:102840000201CDE9002322462B460649064807F03F
:10285000AFFC0649064800F027FA0A2005F066FD9D
:1028600000BFE3E70CE50008C0060020A00600203A
:102870000C00002080B582B000AF78602948FFF7D7
:10288000F1F9FEF7DDFFFEF7C8FFFFF74BF9B0EEF9
:10289000404AF0EE604AB0EE415AF0EE615AB0EEB6
:1028A000426AF0EE626AB0EE437AF0EE637A1E4B53
:1028B00083ED004B83ED025B83ED046B83ED067BC0
:1028C000FFF773F9B0EE404AF0EE604AB0EE415ABD
:1028D000F0EE615AB0EE426AF0EE626AB0EE437A10
:1028E000F0EE637A114B83ED004B83ED025B83EDD9
:1028F000046B83ED067B0E48FEF79CFEF0EE407AFB
:102900000C4BC3ED007A9FED0C0A0948FEF72EFF31
:10291000F0EE407A094BC3ED007A0A2005F006FD7F
:1029200000BFB2E7C0040020C0090020A0090020B9
:10293000E0090020000A002080E6C547040A0020C4
:1029400080B582B000AF78604FF40051044801F0C8
:102950006AF84FF4FA7005F072FA00BFF4E700BFAE
:102960000008024080B582B000AF78607B681B68C9
:10297000084A934201D100F093FD7B681B68064A28
:10298000934202D1054B01221A7000BF0837BD46A1
:1029900080BD00BF0000014000040040E0060020B0
:1029A00080B400AF72B600BF00BFFDE780B582B053
:1029B00000AF78607B6818687B689B8900221946A5
:1029C00001F018F800BF0837BD4680BD80B582B061
:1029D00000AF78607B6818687B689B890122194684
:1029E00001F008F800BF0837BD4680BD80B582B051
:1029F00000AF78607B6858687B68DB8901221946E4
:102A000000F0F8FF00BF0837BD4680BD80B582B03A
:102A100000AF78607B6858687B68DB8900221946C4
:102A200000F0E8FF00BF0837BD4680BD2DE9F04348
:102A300089B000AFF8607A603B600B46FB726B4672
:102A40001E463B68591C4B1EBB610A46002390463C
:102A500099464FF000024FF000034FEAC90343EAE2
:102A600058734FEAC8020A46002314461D464FF029
:102A700000024FF00003EB0043EA5473E2000B4600
:102A80000733DB08DB00ADEB030D6B4600337B61E6
:102A9000FB7A43F02003DAB27B691A700023FB61F2
:102AA0000AE0FB697A681A44FB69013311787A6994
:102AB000D154FB690133FB61FA693B689A42F0DB50
:102AC000F868FFF773FFFB6858693B689BB20133F6
:102AD0009AB26423796903F092F9F868FFF776FFF8
:102AE000B54600BF2437BD46BDE8F08380B584B04D
:102AF00000AF78600B46FB701346BB70FB7843F069
:102B00002003DBB23B73BB787B737868FFF74EFF23
:102B10007B68586907F10C016423022203F06FF906
:102B20007868FFF753FF00BF1037BD4680BD80B502
:102B300086B000AFF8600B467A60FB72FB7AFB75DB
:102B4000F868FFF733FFFB68586907F11701642342
:102B5000012203F054F9FB68586964230122796863
:102B600003F091FAF868FFF731FF00BF1837BD4650
:102B700080BD80B584B000AF78600B46FB70FB78F9
:102B8000FB737868FFF712FF7B68586907F10F0144
:102B90006423012203F033F97868FFF717FF00BFC1
:102BA0001037BD4680BD80B584B000AF7860072384
:102BB000FB730023BB737868FFF7F8FE7B685869E6
:102BC00007F10F016423012203F019F97B685869AA
:102BD00007F10E014FF47A73012203F054FA78687A
:102BE000FFF7F4FEBB7B18461037BD4680BD80B5AD
:102BF00086B000AFF860B9601346FB80F868FFF755
:102C0000D5FE6123FB75FB68586907F11701642342
:102C1000012203F0F4F8FB685869FA884FF47A73DC
:102C2000B96803F030FAF868FFF7D0FE00BF183734
:102C3000BD4680BD80B586B000AFF860C7E900230F
:102C40000B23FB75F868FFF7E1FED7E90023F8686E
:102C500000F073F801220221F868FFF747FF2022F5
:102C60001121F868FFF742FF00220121F868FFF701
:102C70003DFF07220621F868FFF738FFFB7D194664
:102C8000F86800F03EF8F868FFF7B0FE022000F0A8
:102C900027FCE221F868FFF76CFFFB6801221A7637
:102CA00000BF1837BD4680BD80B584B000AF7860E6
:102CB00039607B681B7E012B1ED17868FFF796FE7A
:102CC0007868FFF770FF0346FB73FB7B03F040035C
:102CD000002B0BD0402207217868FFF707FF202246
:102CE00039687868FFF783FF022306E0E2217868FD
:102CF000FFF73FFF012300E0002318461037BD46D1
:102D000080BD80B584B000AF78600B46FB70FB7867
:102D10001A4600217868FFF7E9FE07F10F031A460B
:102D200000217868FFF703FFFB7BFA789A42EED127
:102D300000BF00BF1037BD4680BD80B58AB000AF70
:102D4000F860C7E90023D7E90023C7E90823002377
:102D5000FB6116E097F8201007F11402FB69134499
:102D60000A461A70D7E908014FF000024FF000033D
:102D7000020A42EA01620B0AC7E90823FB69013330
:102D8000FB61FB69042BE5DD07F1140205230A2131
:102D9000F868FFF74BFE00BF2837BD4680BD000036
:102DA00080B582B000AF00237B60124B5B6C114A90
:102DB00043F4804353640F4B5B6C03F480437B60AC
:102DC0007B6800233B600B4B1B6C0A4A43F080532B
:102DD0001364084B1B6C03F080533B603B6800227C
:102DE0000F216FF0010000F057FC00BF0837BD460F
:102DF00080BD00BF0038024080B58AB000AF786067
:102E000007F1140300221A605A609A60DA601A61AE
:102E10007B681B68194A93422BD100233B61184BF6
:102E20001B6B174A43F002031363154B1B6B03F034
:102E300002033B613B69C0237B611223BB6100231A
:102E4000FB6103233B6204237B6207F114031946F1
:102E50000C4800F04BFC0023FB60094B1B6C084A3C
:102E600043F400131364064B1B6C03F40013FB6064
:102E7000FB6800BF2837BD4680BD00BF005400403E
:102E8000003802400004024080B58CB000AF78608A
:102E900007F11C0300221A605A609A60DA601A6116
:102EA0007B681B68324A93422CD10023BB61314BB3
:102EB0005B6C304A43F4805353642E4B5B6C03F4D9
:102EC0008053BB61BB6900237B612A4B1B6B294A82
:102ED00043F001031363274B1B6B03F001037B617A
:102EE0007B69E023FB6102233B6200237B620323B7
:102EF000BB620523FB6207F11C0319461E4800F064
:102F0000F5FB31E07B681B681C4A93422CD10023FF
:102F10003B61184B1B6C174A43F480431364154BF9
:102F20001B6C03F480433B613B690023FB60114B46
:102F30001B6B104A43F0020313630E4B1B6B03F031
:102F40000203FB60FB684FF44443FB6102233B62D6
:102F500000237B620323BB620523FB6207F11C0392
:102F60001946074800F0C2FB00BF3037BD4680BDA0
:102F700000300140003802400000024000380040AC
:102F80000004024080B485B000AF78607B681B68A5
:102F9000B3F1804F0DD10023FB60094B1B6C084A35
:102FA00043F001031364064B1B6C03F00103FB6049
:102FB000FB6800BF1437BD465DF8047B704700BF57
:102FC0000038024080B584B000AF78607B681B6831
:102FD0000E4A934215D10023FB600D4B1B6C0C4A2B
:102FE00043F0020313640A4B1B6C03F00203FB6003
:102FF000FB68002205211D2000F04EFB1D2000F083
:1030000067FB00BF1037BD4680BD00BF0004004015
:103010000038024080B588B000AF786007F10C033B
:1030200000221A605A609A60DA601A617B681B6835
:10303000B3F1804F1DD10023BB60104B1B6B0F4AB7
:1030400043F0010313630D4B1B6B03F00103BB60E3
:10305000BB680F23FB6002233B6100237B610023DD
:10306000BB610123FB6107F10C031946044800F022
:103070003DFB00BF2037BD4680BD00BF0038024089
:103080000000024080B58AB000AF786007F11403F9
:1030900000221A605A609A60DA601A617B681B68C5
:1030A000194A93422CD100233B61184B5B6C174AA1
:1030B00043F010035364154B5B6C03F010033B614A
:1030C0003B690023FB60114B1B6B104A43F001036B
:1030D00013630E4B1B6B03F00103FB60FB684FF4A3
:1030E000C0637B610223BB610023FB6103233B625E
:1030F00007237B6207F114031946054800F0F6FA2E
:1031000000BF2837BD4680BD001001400038024096
:103110000000024080B58CB000AF78600023BB6235
:1031200000237B620023BB602E4B5B6C2D4A43F077
:10313000010353642B4B5B6C03F00103BB60BB6862
:1031400007F10C0207F110031146184602F09CFD2E
:1031500002F086FDB862BB6A234AA2FB03239B0CE4
:10316000013B7B62214B224A1A60204B40F2E7323E
:10317000DA601E4A7B6A53601C4B00221A611B4BAB
:1031800000229A60194B00229A61184803F080FBD4
:10319000034687F82F3097F82F30002B1BD11348A8
:1031A00003F0C6FB034687F82F3097F82F30002B2B
:1031B00011D1192000F08CFA7B680F2B08D800225F
:1031C0007968192000F068FA0A4A7B68136002E007
:1031D000012387F82F3097F82F3018463037BD4637
:1031E00080BD00BF0038024083DE1B43080A002078
:1031F000000001402C00002080B400AF00BFFDE7BC
:1032000080B400AF00BFFDE780B400AF00BFFDE7B2
:1032100080B400AF00BFFDE780B400AF00BFFDE7A2
:1032200080B400AF00BFBD465DF8047B704700006E
:1032300080B500AF024803F0DDFC00BF80BD00BFD9
:10324000080A002080B500AF024803F0D3FC00BF9D
:1032500080BD00BF0C06002080B400AF01231846DB
:10326000BD465DF8047B704780B582B000AF7860E2
:10327000396007F047F9034616221A604FF0FF3312
:1032800018460837BD4680BD80B582B000AF786073
:103290004FF0FF317868FFF7E7FF00BFFDE780B52B
:1032A00086B000AFF860B9607A6000237B610AE005
:1032B000AFF300800146BB685A1CBA60CAB21A70EC
:1032C0007B6901337B617A697B689A42F0DB7B68BA
:1032D00018461837BD4680BD80B586B000AFF8608F
:1032E000B9607A6000237B6109E0BB685A1CBA6050
:1032F0001B781846AFF300807B6901337B617A69E4
:103300007B689A42F1DB7B6818461837BD4680BD62
:1033100080B483B000AF78604FF0FF3318460C37AD
:10332000BD465DF8047B704780B483B000AF786021
:1033300039603B684FF400525A60002318460C373E
:10334000BD465DF8047B704780B483B000AF786001
:10335000012318460C37BD465DF8047B704780B4E6
:1033600085B000AFF860B9607A6000231846143762
:10337000BD465DF8047B704780B586B000AF7860CD
:10338000144A154BD31A7B617B693B61134B1B6855
:10339000002B02D1114B124A1A60104B1A687B683D
:1033A00013443A699A4207D207F0ACF803460C225C
:1033B0001A604FF0FF3309E0084B1B68FB60074BB6
:1033C0001A687B681344054A1360FB68184618376F
:1033D000BD4680BD0000022000040000500A00200D
:1033E000F848002080B400AF064BD3F88830054A77
:1033F00043F47003C2F8883000BFBD465DF8047B1B
:10340000704700BF00ED00E0DFF834D0FFF7EAFFBF
:103410000C480D490D4A002302E0D458C45004332F
:10342000C4188C42F9D30A4A0A4C002301E0136005
:103430000432A242FBD307F06BF8FEF73DFD704764
:1034400000000220000000200002002094E9000893
:1034500000020020F8480020FEE7000080B500AF21
:103460000E4B1B680D4A43F4007313600B4B1B6833
:103470000A4A43F480631360084B1B68074A43F40D
:1034800080731360032000F0FCF80F20FFF742FE6A
:10349000FFF786FC0023184680BD00BF003C0240B9
:1034A00080B400AF064B1B781A46064B1B681344CA
:1034B000044A136000BFBD465DF8047B704700BF3F
:1034C00030000020540A002080B400AF034B1B687A
:1034D0001846BD465DF8047B704700BF540A0020C3
:1034E00080B584B000AF7860FFF7EEFFB8607B680E
:1034F000FB60FB68B3F1FF3F05D00A4B1B781A460F
:10350000FB681344FB6000BFFFF7DEFF0246BB68A9
:10351000D31AFA689A42F7D800BF00BF1037BD46E9
:1035200080BD00BF3000002080B485B000AF78605F
:103530007B6803F00703FB600C4BDB68BB60BA6879
:103540004FF6FF031340BB60FB681A02BB681343CE
:1035500043F0BF6343F40033BB60044ABB68D360ED
:1035600000BF1437BD465DF8047B704700ED00E0F6
:1035700080B400AF044BDB681B0A03F00703184656
:10358000BD465DF8047B704700ED00E080B483B079
:1035900000AF0346FB7197F90730002B0BDBFB797B
:1035A00003F01F02074997F907305B09012000FA71
:1035B00002F241F8232000BF0C37BD465DF8047BC2
:1035C000704700BF00E100E080B483B000AF034665
:1035D0003960FB7197F90730002B0ADB3B68DAB2E0
:1035E0000C4997F907301201D2B20B4483F800233B
:1035F0000AE03B68DAB20849FB7903F00F03043BA9
:103600001201D2B20B441A7600BF0C37BD465DF8EA
:10361000047B704700E100E000ED00E080B489B079
:1036200000AFF860B9607A60FB6803F00703FB61E4
:10363000FB69C3F10703042B28BF0423BB61FB69AB
:103640000433062B02D9FB69033B00E000237B61B6
:103650004FF0FF32BB6902FA03F3DA43BB681A404A
:103660007B699A404FF0FF317B6901FA03F3D9433C
:103670007B680B40134318462437BD465DF8047B36
:10368000704780B582B000AF78607868FFF74CFF74
:1036900000BF0837BD4680BD80B586B000AF034689
:1036A000B9607A60FB7300237B61FFF761FF78618B
:1036B0007A68B9687869FFF7B1FF024697F90F3069
:1036C00011461846FFF780FF00BF1837BD4680BD82
:1036D00080B582B000AF0346FB7197F907301846FA
:1036E000FFF754FF00BF0837BD4680BD80B489B0E6
:1036F00000AF7860396000237B6100233B610023C9
:10370000BB610023FB6159E10122FB6902FA03F36B
:103710007B613B681B687A6913403B613A697B694E
:103720009A4240F048813B685B6803F00303012B39
:1037300005D03B685B6803F00303022B30D17B6844
:103740009B68BB61FB695B00032202FA03F3DB4366
:10375000BA691340BB613B68DA68FB695B0002FA37
:1037600003F3BA691343BB617B68BA699A607B68EB
:103770005B68BB610122FB6902FA03F3DB43BA69B0
:103780001340BB613B685B681B0903F00102FB69E6
:1037900002FA03F3BA691343BB617B68BA695A60E2
:1037A0003B685B6803F00303032B17D07B68DB687F
:1037B000BB61FB695B00032202FA03F3DB43BA69D6
:1037C0001340BB613B689A68FB695B0002FA03F334
:1037D000BA691343BB617B68BA69DA603B685B68AE
:1037E00003F00303022B23D1FB69DA087B6808325C
:1037F00053F82230BB61FB6903F007039B000F22E3
:1038000002FA03F3DB43BA691340BB613B681A69F0
:10381000FB6903F007039B0002FA03F3BA69134341
:10382000BB61FB69DA087B680832B96943F822108A
:103830007B681B68BB61FB695B00032202FA03F330
:10384000DB43BA691340BB613B685B6803F003026A
:10385000FB695B0002FA03F3BA691343BB617B683F
:10386000BA691A603B685B6803F44033002B00F0D0
:10387000A2800023FB60574B5B6C564A43F48043A5
:103880005364544B5B6C03F48043FB60FB68524A07
:10389000FB699B08023352F82330BB61FB6903F0DC
:1038A00003039B000F2202FA03F3DB43BA691340C0
:1038B000BB617B68494A934219D07B68484A93426E
:1038C00013D07B68474A93420DD07B68464A9342A7
:1038D00007D07B68454A934201D1042308E00723BF
:1038E00006E0032304E0022302E0012300E00023BA
:1038F000FA6902F0030292009340BA691343BB6174
:103900003549FB699B080233BA6941F82320384BDB
:103910009B68BB613B69DB43BA691340BB613B6891
:103920005B6803F48013002B03D0BA693B6913432F
:10393000BB612F4ABB6993602D4BDB68BB613B6960
:10394000DB43BA691340BB613B685B6803F4001357
:10395000002B03D0BA693B691343BB61244ABB699E
:10396000D360234B5B68BB613B69DB43BA6913409F
:10397000BB613B685B6803F40033002B03D0BA697A
:103980003B691343BB611A4ABB695360184B1B6800
:10399000BB613B69DB43BA691340BB613B685B6851
:1039A00003F48033002B03D0BA693B691343BB6136
:1039B0000F4ABB691360FB690133FB61FB690F2B85
:1039C0007FF6A2AE00BF00BF2437BD465DF8047B82
:1039D000704700BF0038024000380140000002403C
:1039E0000004024000080240000C024000100240A7
:1039F000003C014080B483B000AF78600B467B8010
:103A000013467B707B78002B03D07A887B689A61A1
:103A100003E07B881A047B689A6100BF0C37BD46BF
:103A20005DF8047B704780B485B000AF78600B46CA
:103A30007B807B685B69FB607A88FB6813401A04B3
:103A4000FB68D9437B880B401A437B689A6100BFAF
:103A50001437BD465DF8047B7047000080B584B024
:103A600000AF78607B68002B01D101232BE17B68DC
:103A700093F83D30DBB2002B06D17B68002283F83F
:103A80003C207868FFF7B8F97B68242283F83D2052
:103A90007B681B681A687B681B6822F001021A6049
:103AA0007B681B681A687B681B6842F400421A60D6
:103AB0007B681B681A687B681B6822F400421A60E6
:103AC00002F0BAF8F8607B685B68814A934207D8D5
:103AD000FB68804A934294BF01230023DBB206E0D7
:103AE000FB687D4A934294BF01230023DBB2002B85
:103AF00001D00123E7E0FB68784AA2FB03239B0C7B
:103B0000BB607B681B685B6823F03F017B681B68B8
:103B1000BA680A435A607B681B681B6A23F03F013E
:103B20007B685B686A4A934202D8BB68013309E04C
:103B3000BB684FF4967202FB03F3694AA2FB0323AE
:103B40009B0901337A6812680B4313627B681B6818
:103B5000DB6923F44F4222F0FF027B685B685C491B
:103B60008B4219D8FB68591E7B685B685B00B1FB10
:103B7000F3F3591C40F6FC730B40002B0AD0FB6892
:103B8000591E7B685B685B00B1FBF3F30133C3F341
:103B90000B0351E004234FE07B689B68002B11D19D
:103BA000FB68581E7B6859680B465B000B44B0FBF2
:103BB000F3F30133C3F30B03002B0CBF01230023EA
:103BC000DBB212E0FB68581E7B6859680B469B000D
:103BD0000B4499000B44B0FBF3F30133C3F30B0325
:103BE000002B0CBF01230023DBB2002B01D00123EB
:103BF00022E07B689B68002B0ED1FB68581E7B6817
:103C000059680B465B000B44B0FBF3F30133C3F37D
:103C10000B0343F400430FE0FB68581E7B685968B0
:103C20000B469B000B4499000B44B0FBF3F30133AC
:103C3000C3F30B0343F44043796809681343CB6132
:103C40007B681B681B6823F0C0017B68DA697B68AE
:103C50001B6A1A437B681B680A431A607B681B68EF
:103C60009B6823F4034323F0FF037A6811697A68A1
:103C7000D26811437A6812680B4393607B681B68B3
:103C8000DB6823F0FF017B685A697B689B691A43F4
:103C90007B681B680A43DA607B681B681A687B686C
:103CA0001B6842F001021A607B6800221A647B687C
:103CB000202283F83D207B6800221A637B68002263
:103CC00083F83E20002318461037BD4680BD00BF54
:103CD000A08601007F841E00FF083D0083DE1B4399
:103CE000D34D621080B588B002AFF8607A601A4692
:103CF0000B467B8113463B81FFF7E6FB7861FB684F
:103D000093F83D30DBB2202B40F0E0807B690093DC
:103D1000192301227049F86801F028F90346002BA5
:103D200001D00223D3E0FB6893F83C30012B01D192
:103D30000223CCE0FB68012283F83C20FB681B686F
:103D40001B6803F00103012B07D0FB681B681A688E
:103D5000FB681B6842F001021A60FB681B681A6866
:103D6000FB681B6822F400621A60FB68212283F85A
:103D70003D20FB68102283F83E20FB6800221A6475
:103D8000FB687A685A62FB683A895A85FB685B8DE2
:103D90009AB2FB681A85FB68504ADA6279897B69B6
:103DA0003A6AF86800F014FE0346002B01D00123A4
:103DB0008DE000233B61FB681B685B693B61FB682E
:103DC0001B689B693B613B6966E07A69396AF86800
:103DD00001F0E6F90346002B0DD0FB681B6C042BA9
:103DE00007D1FB681B681A68FB681B6842F4007205
:103DF0001A6001236BE0FB685B6A1A78FB681B683A
:103E00001A61FB685B6A5A1CFB685A62FB685B8D2F
:103E10009BB2013B9AB2FB685A85FB681B8D013B44
:103E20009AB2FB681A85FB681B685B6903F00403A0
:103E3000042B1BD1FB681B8D002B17D0FB685B6A22
:103E40001A78FB681B681A61FB685B6A5A1CFB687E
:103E50005A62FB685B8D9BB2013B9AB2FB685A8544
:103E6000FB681B8D013B9AB2FB681A857A69396A37
:103E7000F86801F0DDF90346002B0DD0FB681B6CE0
:103E8000042B07D1FB681B681A68FB681B6842F4A7
:103E900000721A6001231AE0FB681B8D002B94D17D
:103EA000FB681B681A68FB681B6842F400721A60A2
:103EB000FB68202283F83D20FB68002283F83E2027
:103EC000FB68002283F83C20002300E00223184610
:103ED0001837BD4680BD00BF020010000000FFFF84
:103EE00080B58CB002AFF8607A601A460B467B81D1
:103EF00013463B81FFF7E8FA7862FB6893F83D30A0
:103F0000DBB2202B40F017827B6A00931923012239
:103F10007C49F86801F02AF80346002B01D00223FF
:103F20000AE2FB6893F83C30012B01D1022303E243
:103F3000FB68012283F83C20FB681B681B6803F0C8
:103F40000103012B07D0FB681B681A68FB681B681C
:103F500042F001021A60FB681B681A68FB681B6864
:103F600022F400621A60FB68222283F83D20FB687D
:103F7000102283F83E20FB6800221A64FB687A68EE
:103F80005A62FB683A895A85FB685B8D9AB2FB6876
:103F90001A85FB685C4ADA6279897B6A3A6BF86851
:103FA00000F098FD0346002B01D00123C4E1FB681B
:103FB0001B8D002B13D100233B62FB681B685B69E0
:103FC0003B62FB681B689B693B623B6AFB681B6842
:103FD0001A68FB681B6842F400721A6098E1FB687B
:103FE0001B8D012B1BD1FB681B681A68FB681B68C3
:103FF00022F480621A600023FB61FB681B685B6926
:10400000FB61FB681B689B69FB61FB69FB681B68C4
:104010001A68FB681B6842F400721A6078E1FB685A
:104020001B8D022B1BD1FB681B681A68FB681B6881
:1040300022F480621A60FB681B681A68FB681B68C0
:1040400042F400621A600023BB61FB681B685B6975
:10405000BB61FB681B689B69BB61BB6958E1FB687E
:104060001B681A68FB681B6842F480621A600023B0
:104070007B61FB681B685B697B61FB681B689B69F4
:104080007B617B6944E1FB681B8D032B00F2F180AF
:10409000FB681B8D012B23D17A6A396BF86801F01C
:1040A0000FF90346002B01D0012345E1FB681B6893
:1040B0001A69FB685B6AD2B21A70FB685B6A5A1CA9
:1040C000FB685A62FB681B8D013B9AB2FB681A853C
:1040D000FB685B8D9BB2013B9AB2FB685A8517E186
:1040E000FB681B8D022B4ED17B6A00933B6B002239
:1040F0000649F86800F03AFF0346002B08D0012378
:104100001AE100BF020010000000FFFF04000100E0
:10411000FB681B681A68FB681B6842F400721A602F
:10412000FB681B681A69FB685B6AD2B21A70FB688D
:104130005B6A5A1CFB685A62FB681B8D013B9AB292
:10414000FB681A85FB685B8D9BB2013B9AB2FB68EA
:104150005A85FB681B681A69FB685B6AD2B21A70E1
:10416000FB685B6A5A1CFB685A62FB681B8D013B4B
:104170009AB2FB681A85FB685B8D9BB2013B9AB2D1
:10418000FB685A85C4E07B6A00933B6B00226C4954
:10419000F86800F0EBFE0346002B01D00123CBE0D2
:1041A000FB681B681A68FB681B6822F480621A604F
:1041B000FB681B681A69FB685B6AD2B21A70FB68FD
:1041C0005B6A5A1CFB685A62FB681B8D013B9AB202
:1041D000FB681A85FB685B8D9BB2013B9AB2FB685A
:1041E0005A857B6A00933B6B00225549F86800F0C2
:1041F000BDFE0346002B01D001239DE0FB681B6838
:104200001A68FB681B6842F400721A60FB681B683E
:104210001A69FB685B6AD2B21A70FB685B6A5A1C47
:10422000FB685A62FB681B8D013B9AB2FB681A85DA
:10423000FB685B8D9BB2013B9AB2FB685A85FB68B9
:104240001B681A69FB685B6AD2B21A70FB685B6A0A
:104250005A1CFB685A62FB681B8D013B9AB2FB68D3
:104260001A85FB685B8D9BB2013B9AB2FB685A854D
:104270004EE07A6A396BF86801F022F80346002BA9
:1042800001D0012358E0FB681B681A69FB685B6A70
:10429000D2B21A70FB685B6A5A1CFB685A62FB68F0
:1042A0001B8D013B9AB2FB681A85FB685B8D9BB244
:1042B000013B9AB2FB685A85FB681B685B6903F097
:1042C0000403042B24D1FB681B8D032B07D1FB684F
:1042D0001B681A68FB681B6822F480621A60FB681E
:1042E0001B681A69FB685B6AD2B21A70FB685B6A6A
:1042F0005A1CFB685A62FB681B8D013B9AB2FB6833
:104300001A85FB685B8D9BB2013B9AB2FB685A85AC
:10431000FB681B8D002B7FF4B6AEFB68202283F870
:104320003D20FB68002283F83E20FB68002283F8D2
:104330003C20002300E0022318462837BD4680BDFC
:104340000400010080B588B002AFF860084611464D
:104350001A4603467B810B463B811346FB80FFF7E1
:10436000B3F87861FB6893F83D30DBB2202B40F066
:10437000D9807B690093192301226D49F86800F008
:10438000F5FD0346002B01D00223CCE0FB6893F837
:104390003C30012B01D10223C5E0FB68012283F8E8
:1043A0003C20FB681B681B6803F00103012B07D04E
:1043B000FB681B681A68FB681B6842F001021A6000
:1043C000FB681B681A68FB681B6822F400621A60AD
:1043D000FB68212283F83D20FB68402283F83E20C1
:1043E000FB6800221A64FB683A6A5A62FB68BA8C5E
:1043F0005A85FB685B8D9AB2FB681A85FB684D4A4B
:10440000DA62F8883A8979897B690193BB6A0093FB
:104410000346F86800F02CFC0346002B52D0012321
:1044200081E07A69B96AF86800F0BAFE0346002BA9
:104430000DD0FB681B6C042B07D1FB681B681A6846
:10444000FB681B6842F400721A6001236BE0FB6892
:104450005B6A1A78FB681B681A61FB685B6A5A1C06
:10446000FB685A62FB681B8D013B9AB2FB681A8598
:10447000FB685B8D9BB2013B9AB2FB685A85FB6877
:104480001B685B6903F00403042B1BD1FB681B8DC5
:10449000002B17D0FB685B6A1A78FB681B681A61EF
:1044A000FB685B6A5A1CFB685A62FB681B8D013B08
:1044B0009AB2FB681A85FB685B8D9BB2013B9AB28E
:1044C000FB685A85FB681B8D002BAAD17A69B96AF3
:1044D000F86800F0ADFE0346002B0DD0FB681B6CA6
:1044E000042B07D1FB681B681A68FB681B6842F441
:1044F00000721A60012316E0FB681B681A68FB68EB
:104500001B6842F400721A60FB68202283F83D2089
:10451000FB68002283F83E20FB68002283F83C20E1
:10452000002300E0022318461837BD4680BD00BFB7
:10453000020010000000FFFF80B58CB002AFF860F1
:10454000084611461A4603467B810B463B811346BB
:10455000FB80FEF7B9FF7862FB6893F83D30DBB271
:10456000202B40F014827B6A0093192301227B499F
:10457000F86800F0FBFC0346002B01D0022307E2A1
:10458000FB6893F83C30012B01D1022300E2FB6869
:10459000012283F83C20FB681B681B6803F00103C1
:1045A000012B07D0FB681B681A68FB681B6842F088
:1045B00001021A60FB681B681A68FB681B6822F41A
:1045C00000621A60FB68222283F83D20FB684022CB
:1045D00083F83E20FB6800221A64FB683A6B5A623B
:1045E000FB68BA8E5A85FB685B8D9AB2FB681A85A8
:1045F000FB685B4ADA62F8883A8979897B6A0193B9
:10460000BB6B00930346F86800F0C8FB0346002B21
:1046100001D00123BCE1FB681B8D002B13D10023CB
:104620003B62FB681B685B693B62FB681B689B69BC
:104630003B623B6AFB681B681A68FB681B6842F4B4
:1046400000721A6090E1FB681B8D012B1BD1FB6887
:104650001B681A68FB681B6822F480621A600023DA
:10466000FB61FB681B685B69FB61FB681B689B69FE
:10467000FB61FB69FB681B681A68FB681B6842F4F6
:1046800000721A6070E1FB681B8D022B1BD1FB6866
:104690001B681A68FB681B6822F480621A60FB685A
:1046A0001B681A68FB681B6842F400621A600023EA
:1046B000BB61FB681B685B69BB61FB681B689B692E
:1046C000BB61BB6950E100237B61FB681B685B69D0
:1046D0007B61FB681B689B697B617B6944E1FB68CC
:1046E0001B8D032B00F2F180FB681B8D012B23D166
:1046F0007A6AB96BF86800F0E3FD0346002B01D03D
:10470000012345E1FB681B681A69FB685B6AD2B24A
:104710001A70FB685B6A5A1CFB685A62FB681B8D47
:10472000013B9AB2FB681A85FB685B8D9BB2013B2B
:104730009AB2FB685A8517E1FB681B8D022B4ED19C
:104740007B6A0093BB6B00220649F86800F00EFC00
:104750000346002B08D001231AE100BF020010001D
:104760000000FFFF04000100FB681B681A68FB687B
:104770001B6842F400721A60FB681B681A69FB68C8
:104780005B6AD2B21A70FB685B6A5A1CFB685A6299
:10479000FB681B8D013B9AB2FB681A85FB685B8D39
:1047A0009BB2013B9AB2FB685A85FB681B681A6989
:1047B000FB685B6AD2B21A70FB685B6A5A1CFB68C2
:1047C0005A62FB681B8D013B9AB2FB681A85FB6835
:1047D0005B8D9BB2013B9AB2FB685A85C4E07B6A51
:1047E0000093BB6B00226C49F86800F0BFFB0346E6
:1047F000002B01D00123CBE0FB681B681A68FB6823
:104800001B6822F480621A60FB681B681A69FB68E7
:104810005B6AD2B21A70FB685B6A5A1CFB685A6208
:10482000FB681B8D013B9AB2FB681A85FB685B8DA8
:104830009BB2013B9AB2FB685A857B6A0093BB6BC3
:1048400000225549F86800F091FB0346002B01D087
:1048500001239DE0FB681B681A68FB681B6842F433
:1048600000721A60FB681B681A69FB685B6AD2B247
:104870001A70FB685B6A5A1CFB685A62FB681B8DE6
:10488000013B9AB2FB681A85FB685B8D9BB2013BCA
:104890009AB2FB685A85FB681B681A69FB685B6AF9
:1048A000D2B21A70FB685B6A5A1CFB685A62FB68DA
:1048B0001B8D013B9AB2FB681A85FB685B8D9BB22E
:1048C000013B9AB2FB685A854EE07A6AB96BF86888
:1048D00000F0F6FC0346002B01D0012358E0FB68F2
:1048E0001B681A69FB685B6AD2B21A70FB685B6A64
:1048F0005A1CFB685A62FB681B8D013B9AB2FB682D
:104900001A85FB685B8D9BB2013B9AB2FB685A85A6
:10491000FB681B685B6903F00403042B24D1FB686C
:104920001B8D032B07D1FB681B681A68FB681B688B
:1049300022F480621A60FB681B681A69FB685B6A74
:10494000D2B21A70FB685B6A5A1CFB685A62FB6839
:104950001B8D013B9AB2FB681A85FB685B8D9BB28D
:10496000013B9AB2FB685A85FB681B8D002B7FF4D4
:10497000B6AEFB68202283F83D20FB68002283F856
:104980003E20FB68002283F83C20002300E0022345
:1049900018462837BD4680BD0400010080B483B0AE
:1049A00000AF78607B6893F83D30DBB218460C3777
:1049B000BD465DF8047B704780B483B000AF78607B
:1049C0007B681B6C18460C37BD465DF8047B70474E
:1049D00080B588B002AFF8607A603B600B467B819F
:1049E000FB68DB6A7B617B69082B06D07B69012B46
:1049F00003D07B6913F5803F08D1FB681B681A68F8
:104A0000FB681B6842F480721A600BE0FB681B6B4A
:104A1000122B07D1FB681B681A68FB681B6842F4FD
:104A200080721A603B6800937B6800224FF001118E
:104A3000F86800F09BFA0346002B0DD0FB681B685A
:104A40001B6803F48073B3F5807F03D1FB684FF4D8
:104A500000721A64032335E0FB681B69B3F5804FCD
:104A600008D17B89DBB21A46FB681B6802F0FE02A4
:104A70001A611BE07B89DB11DBB203F00603DBB2BA
:104A800063F00F03DAB2FB681B681A613B687A684F
:104A90000E49F86800F0E4FA0346002B01D0012328
:104AA00010E07B89DAB2FB681B681A613B687A68A0
:104AB0000749F86800F0D4FA0346002B01D001231F
:104AC00000E0002318461837BD4680BD08000100ED
:104AD0000200010080B588B002AFF8607A603B60E8
:104AE0000B467B81FB68DB6A7B61FB681B681A688D
:104AF000FB681B6842F480621A607B69082B06D051
:104B00007B69012B03D07B6913F5803F08D1FB68DB
:104B10001B681A68FB681B6842F480721A600BE01D
:104B2000FB681B6B112B07D1FB681B681A68FB68BD
:104B30001B6842F480721A603B6800937B68002215
:104B40004FF00111F86800F011FA0346002B0DD068
:104B5000FB681B681B6803F48073B3F5807F03D187
:104B6000FB684FF400721A64032379E0FB681B6949
:104B7000B3F5804F08D17B89DBB243F00103DAB291
:104B8000FB681B681A615FE07B89DB11DBB203F015
:104B90000603DBB263F00F03DAB2FB681B681A612D
:104BA0003B687A683049F86800F05AFA0346002BEF
:104BB00001D0012354E07B89DAB2FB681B681A61DB
:104BC0003B687A682949F86800F04AFA0346002BE6
:104BD00001D0012344E000233B61FB681B685B6953
:104BE0003B61FB681B689B693B613B69FB681B6819
:104BF0001A68FB681B6842F480721A603B68009375
:104C00007B6800224FF00111F86800F0AFF903460D
:104C1000002B0DD0FB681B681B6803F48073B3F591
:104C2000807F03D1FB684FF400721A64032317E0FE
:104C30007B89DB11DBB203F00603DBB263F00E030A
:104C4000DAB2FB681B681A613B687A680749F86842
:104C500000F006FA0346002B01D0012300E00023F8
:104C600018461837BD4680BD08000100020001004B
:104C700080B588B002AFF860084611461A46034670
:104C80007B810B463B811346FB80FB681B681A68DF
:104C9000FB681B6842F480721A607B6A00933B6A6F
:104CA00000224FF00111F86800F060F90346002B74
:104CB0000DD0FB681B681B6803F48073B3F5807F1D
:104CC00003D1FB684FF400721A6403235FE07B8911
:104CD000DBB21A46FB681B6802F0FE021A617B6AAF
:104CE0003A6A2D49F86800F0BBF90346002B01D061
:104CF00001234CE000237B61FB681B685B697B61DF
:104D0000FB681B689B697B617B697A6A396AF86812
:104D100000F046FA0346002B0DD0FB681B6C042BF9
:104D200007D1FB681B681A68FB681B6842F40072B5
:104D30001A6001232BE0FB88012B05D13B89DAB2F5
:104D4000FB681B681A6121E03B891B0A9BB2DAB23F
:104D5000FB681B681A617A6A396AF86800F020FA01
:104D60000346002B0DD0FB681B6C042B07D1FB689E
:104D70001B681A68FB681B6842F400721A60012302
:104D800005E03B89DAB2FB681B681A61002318460C
:104D90001837BD4680BD00BF0200010080B588B055
:104DA00002AFF860084611461A4603467B810B465F
:104DB0003B811346FB80FB681B681A68FB681B6815
:104DC00042F480621A60FB681B681A68FB681B6803
:104DD00042F480721A607B6A00933B6A00224FF0B3
:104DE0000111F86800F0C2F80346002B0DD0FB68F3
:104DF0001B681B6803F48073B3F5807F03D1FB68E5
:104E00004FF400721A640323AAE07B89DBB21A46CE
:104E1000FB681B6802F0FE021A617B6A3A6A52491B
:104E2000F86800F01DF90346002B01D0012397E03C
:104E300000237B61FB681B685B697B61FB681B6807
:104E40009B697B617B697A6A396AF86800F0A8F926
:104E50000346002B0DD0FB681B6C042B07D1FB68AD
:104E60001B681A68FB681B6842F400721A60012311
:104E700076E0FB88012B05D13B89DAB2FB681B6821
:104E80001A6121E03B891B0A9BB2DAB2FB681B68FE
:104E90001A617A6A396AF86800F082F90346002BD1
:104EA0000DD0FB681B6C042B07D1FB681B681A68CC
:104EB000FB681B6842F400721A60012350E03B89D2
:104EC000DAB2FB681B681A617A6A396AF86800F01E
:104ED00067F90346002B0DD0FB681B6C042B07D130
:104EE000FB681B681A68FB681B6842F400721A6052
:104EF000012335E0FB681B681A68FB681B6842F4F5
:104F000080721A607B6A00933B6A00224FF00111A5
:104F1000F86800F02BF80346002B0DD0FB681B68E7
:104F20001B6803F48073B3F5807F03D1FB684FF4F3
:104F300000721A64032313E07B89DBB243F00103A0
:104F4000DAB2FB681B681A617B6A3A6A0649F8683C
:104F500000F086F80346002B01D0012300E0002377
:104F600018461837BD4680BD0200010080B584B0E8
:104F700000AFF860B9603B601346FB7148E03B68E6
:104F8000B3F1FF3F44D0FEF79FFA0246BB69D31A44
:104F90003A689A4202D33B68002B39D1BB681B0C9C
:104FA000DBB2012B0DD1FB681B685B69DA43BB6880
:104FB00013409BB2002B0CBF01230023DBB21A4627
:104FC0000CE0FB681B689B69DA43BB6813409BB22B
:104FD000002B0CBF01230023DBB21A46FB799A4257
:104FE00016D1FB6800221A63FB68202283F83D205B
:104FF000FB68002283F83E20FB681B6C43F0200214
:10500000FB681A64FB68002283F83C20012323E03C
:10501000BB681B0CDBB2012B0DD1FB681B685B6905
:10502000DA43BB6813409BB2002B0CBF0123002363
:10503000DBB21A460CE0FB681B689B69DA43BB686D
:1050400013409BB2002B0CBF01230023DBB21A4696
:10505000FB799A4293D0002318461037BD4680BD95
:1050600080B584B000AFF860B9607A603B6071E0F1
:10507000FB681B685B6903F48063B3F5806F23D121
:10508000FB681B681A68FB681B6842F400721A60B0
:10509000FB681B686FF480625A61FB6800221A6328
:1050A000FB68202283F83D20FB68002283F83E2025
:1050B000FB681B6C43F00402FB681A64FB68002267
:1050C00083F83C20012367E07B68B3F1FF3F41D0C8
:1050D000FEF7FAF902463B68D31A7A689A4202D37D
:1050E0007B68002B36D1BB681B0CDBB2012B0CD1CB
:1050F000FB681B685B69DA43BB6813409BB2002BFB
:1051000014BF01230023DBB20BE0FB681B689B6923
:10511000DA43BB6813409BB2002B14BF012300236A
:10512000DBB2002B16D0FB6800221A63FB6820223A
:1051300083F83D20FB68002283F83E20FB681B6C4F
:1051400043F02002FB681A64FB68002283F83C20CD
:10515000012321E0BB681B0CDBB2012B0CD1FB68E7
:105160001B685B69DA43BB6813409BB2002B14BF1A
:1051700001230023DBB20BE0FB681B689B69DA4369
:10518000BB6813409BB2002B14BF01230023DBB28A
:10519000002B7FF46DAF002318461037BD4680BD4D
:1051A00080B584B000AFF860B9607A6034E0F86828
:1051B00000F0E3F80346002B01D0012334E0BB6884
:1051C000B3F1FF3F28D0FEF77FF902467B68D31A80
:1051D000BA689A4202D3BB68002B1DD1FB681B68DA
:1051E0005B6903F08003802B16D0FB6800221A63F2
:1051F000FB68202283F83D20FB68002283F83E20D4
:10520000FB681B6C43F02002FB681A64FB680022F9
:1052100083F83C20012307E0FB681B685B6903F00F
:105220008003802BC3D1002318461037BD4680BDB4
:1052300080B584B000AFF860B9607A6034E0F86897
:1052400000F09BF80346002B01D0012334E0BB683B
:10525000B3F1FF3F28D0FEF737F902467B68D31A37
:10526000BA689A4202D3BB68002B1DD1FB681B6849
:105270005B6903F00403042B16D0FB6800221A6359
:10528000FB68202283F83D20FB68002283F83E2043
:10529000FB681B6C43F02002FB681A64FB68002269
:1052A00083F83C20012307E0FB681B685B6903F07F
:1052B0000403042BC3D1002318461037BD4680BD1C
:1052C00080B584B000AFF860B9607A6049E0FB68EF
:1052D0001B685B6903F01003102B19D1FB681B6876
:1052E0006FF010025A61FB6800221A63FB682022EB
:1052F00083F83D20FB68002283F83E20FB681A6C8F
:10530000FB681A64FB68002283F83C20012330E02C
:10531000FEF7DAF802467B68D31ABA689A4202D3DB
:10532000BB68002B1DD1FB681B685B6903F0400361
:10533000402B16D0FB6800221A63FB68202283F8FA
:105340003D20FB68002283F83E20FB681B6C43F085
:105350002002FB681A64FB68002283F83C200123CA
:1053600007E0FB681B685B6903F04003402BAED18C
:10537000002318461037BD4680BD80B483B000AF0F
:1053800078607B681B685B6903F48063B3F5806FAA
:105390001BD17B681B686FF480625A617B680022B6
:1053A0001A637B68202283F83D207B68002283F803
:1053B0003E207B681B6C43F004027B681A647B68A8
:1053C000002283F83C20012300E0002318460C371C
:1053D000BD465DF8047B704780B586B000AF78604D
:1053E0007B68002B01D1012367E27B681B6803F017
:1053F0000103002B75D0884B9B6803F00C03042B32
:105400000CD0854B9B6803F00C03082B12D1824B08
:105410005B6803F48003B3F5800F0BD17E4B1B68F0
:1054200003F40033002B5BD07B685B68002B57D103
:10543000012342E27B685B68B3F5803F06D1764B7F
:105440001B68754A43F4803313601DE07B685B681A
:10545000B3F5A02F0CD1704B1B686F4A43F4802327
:1054600013606D4B1B686C4A43F4803313600BE090
:10547000694B1B68684A23F480331360664B1B68D2
:10548000654A23F4802313607B685B68002B13D08C
:10549000FEF71AF8386108E0FEF716F802463B6995
:1054A000D31A642B01D9032307E25B4B1B6803F477
:1054B0000033002BF0D014E0FEF706F8386108E066
:1054C000FEF702F802463B69D31A642B01D9032385
:1054D000F3E1514B1B6803F40033002BF0D100E0E3
:1054E00000BF7B681B6803F00203002B63D04A4BAC
:1054F0009B6803F00C03002B0BD0474B9B6803F019
:105500000C03082B1CD1444B5B6803F48003002B75
:1055100016D1414B1B6803F00203002B05D07B68BA
:10552000DB68012B01D00123C7E13B4B1B6823F053
:10553000F8027B681B69DB00374913430B603AE0D4
:105540007B68DB68002B20D0344B01221A60FDF70A
:10555000BBFF386108E0FDF7B7FF02463B69D31A8D
:10556000022B01D90323A8E12B4B1B6803F0020394
:10557000002BF0D0284B1B6823F0F8027B681B69D6
:10558000DB00254913430B6015E0244B00221A6011
:10559000FDF79AFF386108E0FDF796FF02463B6988
:1055A000D31A022B01D9032387E11B4B1B6803F09D
:1055B0000203002BF0D17B681B6803F00803002B6B
:1055C00036D07B685B69002B16D0154B01221A6020
:1055D000FDF77AFF386108E0FDF776FF02463B6988
:1055E000D31A022B01D9032367E10B4B5B6F03F046
:1055F0000203002BF0D01BE0094B00221A60FDF7DC
:1056000063FF38610EE0FDF75FFF02463B69D31A86
:10561000022B07D9032350E1003802400000474223
:10562000800E4742884B5B6F03F00203002BEAD1E8
:105630007B681B6803F00403002B00F097800023B5
:10564000FB75814B1B6C03F08053002B0FD10023A3
:10565000BB607D4B1B6C7C4A43F0805313647A4BD8
:105660001B6C03F08053BB60BB680123FB75774B59
:105670001B6803F48073002B18D1744B1B68734AAA
:1056800043F480731360FDF71FFF386108E0FDF7F6
:105690001BFF02463B69D31A022B01D903230CE1FD
:1056A0006A4B1B6803F48073002BF0D07B689B6807
:1056B000012B06D1644B1B6F634A43F00103136750
:1056C0001CE07B689B68052B0CD15F4B1B6F5E4A0F
:1056D00043F0040313675C4B1B6F5B4A43F0010309
:1056E00013670BE0584B1B6F574A23F001031367F6
:1056F000554B1B6F544A23F0040313677B689B6868
:10570000002B15D0FDF7E0FE38610AE0FDF7DCFE66
:1057100002463B69D31A41F28832934201D90323EE
:10572000CBE0494B1B6F03F00203002BEED014E0DB
:10573000FDF7CAFE38610AE0FDF7C6FE02463B6986
:10574000D31A41F28832934201D90323B5E03E4B8C
:105750001B6F03F00203002BEED1FB7D012B05D163
:10576000394B1B6C384A23F0805313647B689B6968
:10577000002B00F0A180344B9B6803F00C03082B36
:105780005CD07B689B69022B41D1314B00221A60AF
:10579000FDF79AFE386108E0FDF796FE02463B6988
:1057A000D31A022B01D9032387E0274B1B6803F090
:1057B0000073002BF0D17B68DA697B681B6A1A439F
:1057C0007B685B6A9B011A437B689B6A5B08013BB1
:1057D0001B041A437B68DB6A1B061B4913434B609F
:1057E0001B4B01221A60FDF76FFE386108E0FDF7E0
:1057F0006BFE02463B69D31A022B01D903235CE0FE
:10580000114B1B6803F00073002BF0D054E0104BD9
:1058100000221A60FDF758FE386108E0FDF754FEDB
:1058200002463B69D31A022B01D9032345E0064BFC
:105830001B6803F00073002BF0D13DE07B689B698F
:10584000012B07D1012338E00038024000700040EE
:10585000600047421B4B5B68FB607B689B69012BC8
:1058600028D0FB6803F480027B68DB699A4221D16F
:10587000FB6803F03F027B681B6A9A421AD1FA6800
:1058800047F6C07313407A68526A9201934211D16D
:10589000FB6803F440327B689B6A5B08013B1B0496
:1058A0009A4207D1FB6803F070627B68DB6A1B06D3
:1058B0009A4201D0012300E0002318461837BD4664
:1058C00080BD00BF0038024080B584B000AF786072
:1058D00039607B68002B01D10123CCE0684B1B6849
:1058E00003F007033A689A420CD9654B3A68D2B282
:1058F0001A70634B1B6803F007033A689A4201D0A1
:105900000123B8E07B681B6803F00203002B20D062
:105910007B681B6803F00403002B05D0594B9B6880
:10592000584A43F4E05393607B681B6803F0080314
:10593000002B05D0534B9B68524A43F4604393605D
:10594000504B9B6823F0F0027B689B684D491343E2
:105950008B607B681B6803F00103002B44D07B68DD
:105960005B68012B07D1474B1B6803F40033002B06
:1059700019D101237FE07B685B68022B03D07B6831
:105980005B68032B07D13F4B1B6803F00073002BB0
:1059900009D101236FE03B4B1B6803F00203002B8E
:1059A00001D1012367E0374B9B6823F003027B683A
:1059B0005B68344913438B60FDF786FDF8600AE0AD
:1059C000FDF782FD0246FB68D31A41F2883293420A
:1059D00001D903234FE02B4B9B6803F00C027B683B
:1059E0005B689B009A42EBD1254B1B6803F00703D1
:1059F0003A689A420CD2224B3A68D2B21A70204BC3
:105A00001B6803F007033A689A4201D0012332E091
:105A10007B681B6803F00403002B08D0194B9B68BC
:105A200023F4E0527B68DB68164913438B607B6884
:105A30001B6803F00803002B09D0124B9B6823F46A
:105A400060427B681B69DB000E4913438B6000F0EA
:105A500021F802460B4B9B681B0903F00F030A4910
:105A6000CB5C22FA03F3094A1360094B1B68184602
:105A7000FDF750FB002318461037BD4680BD00BF20
:105A8000003C02400038024028E5000828000020C1
:105A90002C0000202DE9B04F90B000AF00237B63B5
:105AA0000023FB6300233B630023BB63594B9B68CC
:105AB00003F00C03082B0DD0082B00F2A180002B63
:105AC00002D0042B03D09BE0534BBB639BE0534BB2
:105AD000BB6398E04F4B5B6803F03F037B634D4B28
